:020000040000FA
:100000000C947D010C94070E0C94DC0D0C94B10D36
:100010000C94860D0C945B0D0C94300D0C94050D16
:100020000C94DA0C0C94AE010C94AE010C94AE015D
:100030000C94AE010C94AE010C94AE010C94AE0184
:100040000C94AE010C94AE010C94AE010C94AE0174
:100050000C94AE010C94AE010C94AE010C94900C77
:100060000C94AE010C945A0C0C94300C0C94AE0110
:100070000C94AE010C94AE010C94AE010C94AE0144
:100080000C94AE010C94AE010C94AE010C94AE0134
:100090000C94AE010C94AE010C94AE010C94320E93
:1000A0000C94AE010C94AE010C94AE010C94AE0114
:1000B0000C94AE010C94AE010C94AE010C94AE0104
:1000C0000C94AE010C94AE010C94AE010C94AE01F4
:1000D0000C94AE010C94AE010C94AE010C94AE01E4
:1000E0000C94AE010C9465040C94EB040C9419036D
:1000F0000C94BB070C948C030C94FF040C945F07C6
:100100000C9431030C9490040C94560F0C947C04C2
:100110000C9423030C940E030C9472040C94A0040E
:100120000C94050B0C94BE040C94D7040C94B101F0
:100130000C94B0010C9404030C9458070C94A20383
:100140000C94CD040C94F5040C94AA040C94E104D2
:100150000C9498040C948C070C941F030C94DF01EE
:100160000C9402020C94B4040C9483050C94950234
:100170000C9410020C94B2010C9482050C94B803F8
:100180000C94EE010C94070B0C946D040C94480233
:100190000C9445070C9445030C9476030C94840549
:1001A0000C9436070C9429030C9486040C942D03AC
:1001B0000C9416030C9435070C940A030C94370323
:1001C0000C943B030C9412030C9449030C943F03CE
:1001D0000C94B30B0C94440300002100240027006E
:1001E0002A002D0030003300010100000401070146
:1001F0000A0100002200250028002B002E003100FB
:10020000340002010000050108010B01000020007C
:100210002300260029002C002F00320000010000DE
:100220000301060109010505050507050808080879
:10023000020202020A0A080804040404010101017E
:100240000101010103030303030303030407070779
:100250000C0C0C0C0C0C0C0C02020202060606061E
:10026000060606060B0B0B0B0B0B0B0B01021020EB
:1002700020080810204010204080020102010804DC
:100280000201010204081020408080402010080470
:1002900002018004020180402010080402010804C9
:1002A000020101020408102040800102040810200D
:1002B000408000000A0B02090C0D0E080703040120
:1002C000000000000000000000000000000000002E
:1002D00000000000000000000000000000001211FB
:1002E00010000000000000000000000000000000FE
:1002F0000000000000000000560F11241FBECFEFC9
:10030000D1E2DEBFCDBF00E00CBF12E0A0E0B2E062
:10031000E2E6FEE200E00BBF02C007900D92AE3BAA
:10032000B107D9F724E0AEEBB2E001C01D92A53BC6
:10033000B207E1F711E0CDE7D1E000E006C0219778
:100340000109802FFE010E94F315CC37D10780E010
:100350000807A9F70E94F80F0C942F170C940000BF
:1003600008950895AF92BF92CF92DF92EF92FF92DD
:100370000F931F93CF93DF936C017B018B01040FCD
:10038000151FEB015E01AE18BF08C017D10759F069
:100390006991D601ED91FC910190F081E02DC601AB
:1003A0001995892B79F7C501DF91CF911F910F9195
:1003B000FF90EF90DF90CF90BF90AF900895FC0139
:1003C000538D448D252F30E0842F90E0821B930BBA
:1003D000541710F0CF96089501970895FC01918D60
:1003E000828D981761F0A28DAE0FBF2FB11D5D9663
:1003F0008C91928D9F5F9F73928F90E008958FEF05
:100400009FEF0895FC01918D828D981731F0828DB8
:10041000E80FF11D858D90E008958FEF9FEF08950F
:10042000FC01918D228D892F90E0805C9F4F821B73
:1004300091098F73992708958DE993E00E94100226
:1004400021E0892B09F420E0822F0895FC01A48D7E
:10045000A80FB92FB11DA35ABF4F2C91848D90E0E6
:1004600001968F739927848FA689B7892C93A089C9
:10047000B1898C91837080648C93938D848D981353
:1004800006C00288F389E02D80818F7D80830895E6
:10049000EF92FF920F931F93CF93DF93EC0181E0D4
:1004A000888F9B8D8C8D98131AC0E889F98980817B
:1004B00085FF15C09FB7F894EE89FF896083E889AE
:1004C000F98980818370806480839FBF81E090E0A0
:1004D000DF91CF911F910F91FF90EF900895F62E2D
:1004E0000B8D10E00F5F1F4F0F731127E02E8C8DC7
:1004F0008E110CC00FB607FCFACFE889F98980810C
:1005000085FFF5CFCE010E942602F1CFEB8DEC0FD7
:10051000FD2FF11DE35AFF4FF0829FB7F8940B8F28
:10052000EA89FB8980818062CFCFCF93DF93EC0192
:10053000888D8823B9F0AA89BB89E889F9898C91CB
:1005400085FD03C0808186FD0DC00FB607FCF7CF87
:100550008C9185FFF2CF808185FFEDCFCE010E9487
:100560002602E9CFDF91CF91089580E090E0892BBA
:1005700029F00E941C0281110E94000080E090E09E
:10058000892B49F080E090E0892B29F00E9400003F
:1005900081110E94000080E090E0892B49F080E00A
:1005A00090E0892B29F00E94000081110E94000038
:1005B00080E090E0892B49F080E090E0892B29F0E1
:1005C0000E94000081110C94000008958150823136
:1005D00008F05AC0E82FF0E08827EE50FD4F8F4F0B
:1005E0000C94F3151203160304030A030E034403C9
:1005F00019031F03230329032D03310337033B038F
:1006000044033F0345034903809180008F77809323
:1006100080000895809180008F7DF9CF80918000C7
:10062000877FF5CF84B58F7784BD089584B58F7D9E
:10063000FBCF8091B0008F778093B00008958091B8
:10064000B0008F7DF9CF809190008F7780939000DC
:100650000895809190008F7DF9CF80919000877FE1
:10066000F5CF8091A0008F778093A00008958091AE
:10067000A0008F7DF9CF8091A000877FF5CF80917A
:1006800020018F77809320010895809120018F7D34
:10069000F9CF80912001877FF5CFCF93DF93282F6B
:1006A00030E0F901EE54FD4F8491F901E459FD4F1A
:1006B000D491F901EA5DFD4FC491CC23A1F08111E1
:1006C0000E94E602EC2FF0E0EE0FFF1FE45FFD4F0B
:1006D000A591B491EC91ED2381E090E009F480E0E4
:1006E000DF91CF91089580E090E0FACF85E00E94FD
:1006F0004D031816190654F480911B0390911C03A6
:10070000019690931C0380931B03089580911B0313
:1007100090911C030197F5CF84E00E944D031816B9
:10072000190654F480911D0390911E030196909335
:100730001E0380931D03089580911D0390911E0355
:100740000197F5CF81E10E944D031816190654F464
:1007500080911F0390912003019690932003809332
:100760001F03089580911F03909120030197F5CFF7
:1007700080E10E944D031816190654F4809121035C
:100780009091220301969093220380932103089570
:1007900080912103909122030197F5CF1F93CF936E
:1007A000DF93282F30E0F901EE54FD4F8491F901D9
:1007B000E459FD4FD491F901EA5DFD4FC491CC237A
:1007C000A9F0162F81110E94E602EC2FF0E0EE0F47
:1007D000FF1FEE50FE4FA591B4918FB7F894EC91A6
:1007E000111108C0D095DE23DC938FBFDF91CF912C
:1007F0001F910895DE2BF8CFCF93DF9390E0FC019B
:10080000E459FD4F24918A5D9D4FFC01849188231A
:10081000D1F090E0880F991FFC01E852FE4FA5919E
:10082000B491FC01EE50FE4FC591D49161110EC000
:100830009FB7F8948C91E22FE0958E238C932881BA
:10084000E223E8839FBFDF91CF9108958FB7F8949B
:10085000EC91E22BEC938FBFF6CF1F93CF93DF93F6
:10086000182FEB0161E00E94FC03209739F460E04F
:10087000812FDF91CF911F910C94CE03CF3FD105F3
:1008800011F461E0F5CFE12FF0E0EE54FD4FE4917B
:10089000E150E23108F0B3C0F0E08827ED5AFB4F99
:1008A0008F4F0C94F31565046D0472047C04860468
:1008B000FF0490049804A004AA04B404BE04CD0468
:1008C000D704FF04E104EB04F50484B5806884BD1B
:1008D000C7BDDF91CF911F91089584B5806284BD1B
:1008E000C8BDF7CF80918000806880938000D0934E
:1008F0008900C0938800EDCF809180008062809352
:100900008000D0938B00C0938A00E3CF8091800059
:10091000886080938000D0938D00C0938C00D9CFE5
:100920008091B00080688093B000C093B300D1CFB5
:100930008091B00080628093B000C093B400C9CFB2
:1009400080919000806880939000D0939900C0932C
:100950009800BFCF80919000806280939000D093E8
:100960009B00C0939A00B5CF8091900088608093DF
:100970009000D0939D00C0939C00ABCF8091A000CD
:1009800080688093A0008091A0008F7B8093A0005E
:10099000D093A900C093A8009CCF8091A000806252
:1009A0008093A000D093AB00C093AA0092CF809117
:1009B000A00088608093A000D093AD00C093AC00ED
:1009C00088CF80912001806880932001D0932901F5
:1009D000C09328017ECF8091200180628093200106
:1009E000D0932B01C0932A0174CF8091200188609D
:1009F00080932001D0932D01C0932C016ACFC03881
:100A0000D1050CF03ECF33CF865320917B00982F39
:100A1000987F277F922B90937B00877080648093D0
:100A20007C0080917A00806480937A0080917A00C3
:100A300086FDFCCF809178009091790008953FB7B2
:100A4000F8948091070390910803A0910903B09155
:100A50000A0326B5A89B05C02F3F19F00196A11DDA
:100A6000B11D3FBFBA2FA92F982F8827BC01CD01F8
:100A7000620F711D811D911D42E0660F771F881F57
:100A8000991F4A95D1F708958F929F92AF92BF9286
:100A9000CF92DF92EF92FF924B015C010E941F0503
:100AA0006B017C010E941F056C197D098E099F094D
:100AB000683E734081059105A8F321E0821A9108F0
:100AC000A108B10888EEC80E83E0D81EE11CF11C15
:100AD00081149104A104B10429F7FF90EF90DF90F5
:100AE000CF90BF90AF909F908F9008952FB7F894BC
:100AF00060910303709104038091050390910603B4
:100B00002FBF08950895089508952091DF02260FBC
:100B10003327331F21323105ECF420917303FC019C
:100B200090E080E0243069F082E00895A091DF0237
:100B30002191AC0141545D4FA40FB52FB11D2C93F1
:100B40000196861798F38091DF02680F6093DF02A9
:100B500080E0089581E008951092730381E080930E
:100B6000720310924D0361E084E10E94CE0361E0C4
:100B700085E10E94CE03E9EBF0E080818E7F8083E7
:100B800080818D7F808388E48093B80085E48093A2
:100B9000BC00089510922C0310922B0310927A033C
:100BA00010929C030E94AC0580EB91E090932A0385
:100BB0008093290381EB91E090932803809327038E
:100BC0000895CF93DF9391E09093BE028823B9F00C
:100BD000C091B800D091BA008091BC008A7B80930C
:100BE000BC0060E084E10E94CE0360E085E10E94E9
:100BF000CE030E94AC05D093BA00C093B800DF9139
:100C0000CF9108958F929F92AF92BF92CF92DF9231
:100C1000EF92FF920F931F93CF93DF93D0919C039A
:100C2000D13208F0D7C0182FC0919B030E941F0536
:100C30006B017C018091730381116BC082E0809312
:100C40007303109372038FEF8093710310927003FC
:100C5000D0936F03ABE7B3E0EFE4F3E080E0D813A9
:100C600091C010924E0380914E03CC0FC82BC093BD
:100C70004E0380914D03813009F088C010924D03DE
:100C80000E941F056B017C0180914E038093BB0085
:100C90008091750390917603A0917703B0917803CA
:100CA000892B8A2B8B2BA1F00E941F0500917503C5
:100CB0001091760320917703309178036C197D09A8
:100CC0008E099F09061717072807390708F442C03D
:100CD0008091BC0083FDD8CF85EC8093BC000E943E
:100CE0001F056B017C0180917303823009F450C0B1
:100CF000809171038F3F09F46FC08091710380323E
:100D000009F46CC080917103803309F469C084E0F8
:100D100026C08091750390917603A0917703B091DE
:100D20007803892B8A2B8B2B09F484CF0E941F0513
:100D30008090750390907603A0907703B09078032D
:100D40006C197D098E099F0986169706A806B906B3
:100D500008F070CF809174030E94E10585E0109245
:100D60007A0310929C0310927903DF91CF911F9127
:100D70000F91FF90EF90DF90CF90BF90AF909F903A
:100D80008F9008959D9191938F5F69CF85EEA5CF48
:100D90008091750390917603A0917703B0917803C9
:100DA000892B8A2B8B2B09F49ECF0E941F05009163
:100DB00075031091760320917703309178036C19B5
:100DC0007D098E099F09061717072807390708F0BC
:100DD0008ACFC0CF81E0C3CF80E0C1CF82E0BFCF58
:100DE00083E0BDCF1F93CF93DF93EA01122FDC0185
:100DF00011968D919C91DC01ED91FC910280F38123
:100E0000E02D1995C817D90729F4812F0E940206F1
:100E100091E0811190E0892FDF91CF911F9108958A
:100E2000CF93DF93EC018B818823A1F0888191E03F
:100E30009093790380939B0310927A0310929C0302
:100E400081E00E94020691E0811190E0892FDF91FC
:100E5000CF9108950E94CA0581E08B83CE010E9444
:100E60001007982F8111E2CFF1CF0895E0912C0364
:100E700080912B03E81730F4F0E0E35DFC4F8081B4
:100E800090E008958FEF9FEF089590912C0380914B
:100E90002B032FEF3FEF981748F4E92FF0E0E35DC5
:100EA000FC4F208130E09F5F90932C03C90108958F
:100EB00080912B0390912C03891B990B0895CF925D
:100EC000DF92EF92FF920F931F93CF93DF937C01FA
:100ED000CB018A0120917903222389F0EB016B0178
:100EE000C40ED51ECC15DD0569F06991D701ED91D1
:100EF000FC910190F081E02DC7011995F3CF642F8B
:100F00000E948505C801DF91CF911F910F91FF903D
:100F1000EF90DF90CF900895CF93DF931F92CDB7DE
:100F2000DEB76983209179032223F9F020919C0395
:100F3000203258F021E030E0FC013383228390E03E
:100F400080E00F90DF91CF91089580917A03E82F90
:100F5000F0E0E558FC4F998190838F5F80937A038E
:100F600080939C0381E090E0ECCF61E0CE0101969C
:100F70000E948505F7CF90E080E008950F931F93BE
:100F8000CF93DF938A018230910581F08330910500
:100F900089F0019799F4C0E381E3D7E061307105EE
:100FA00089F461E00E94CE0360E013C0CDE28CE2E0
:100FB000D9E0F4CFCEE28FE2D8E0F0CFC3E382E312
:100FC000D6E0ECCF6F3F7F4F79F460E00E94CE0314
:100FD00061E08C2F0E94CE03B8018D2FDF91CF915D
:100FE0001F910F910C942D0460E0DCCFFC01019067
:100FF0000020E9F73197AF01481B590BBC018DE97F
:1010000093E00C94B2018F929F92AF92BF920F9394
:101010001F93CF93DF93CDB7DEB7A1970FB6F894A8
:10102000DEBF0FBECDBF19A2423008F44AE08E01E8
:101030000F5D1F4F842E912CB12CA12CA501940182
:101040000E94D115E62FB901CA01EA30F4F4E05D3F
:10105000D801EE938D01232B242B252B79F790E0DB
:1010600080E0109719F0CD010E94F607A1960FB607
:10107000F894DEBF0FBECDBFDF91CF911F910F91CE
:10108000BF90AF909F908F900895E95CE1CFCF9390
:10109000DF930E94F607EC0188E692E00E94F607D3
:1010A0008C0F9D1FDF91CF9108950C94F6074F92FE
:1010B0005F926F927F928F929F92AF92BF92CF92E8
:1010C000DF92EF92FF920F931F93CF936B017C01FE
:1010D000742EAC019B010E94CC15882399F08BE6FD
:1010E00092E0CF911F910F91FF90EF90DF90CF9002
:1010F000BF90AF909F908F907F906F905F904F9038
:101100000C94F60746015701E894B7F82FEF3FEF2C
:101110004FE75FE7C501B4010E94CC1581110DC0F6
:101120002FEF3FEF4FE75FE7C501B4010E94FB13CC
:1011300018161CF48FE692E0D4CF2FEF3FEF4FE765
:101140005FE4C701B6010E945A1518161CF483E724
:1011500092E0C7CF2FEF3FEF4FE75FECC701B6013B
:101160000E94FB1387FDF3CF20E030E0A901C70107
:10117000B6010E94FB1310E000E087FF0AC06DE299
:101180008DE993E00E9448028C01F7FAF094F7F899
:10119000F094C0E060E070E080E09FE37C1641F0F6
:1011A00020E030E040E251E40E940014CF5FF6CF2F
:1011B000A70196010E948F132B013C010E94791414
:1011C0004B015C014AE00E9403087C01E00EF11E25
:1011D000CC23C1F1C501B4010E94A8149B01AC014C
:1011E000C301B2010E948E134B015C016EE28DE9D6
:1011F00093E00E944802E80EF91EC15018F120E069
:1012000030E040E251E4C501B4010E945F152B01BA
:101210003C010E9479144B01B12CA12C4AE0C5017C
:10122000B4010E940308E80EF91EC501B4010E9432
:10123000A8149B01AC01C301B2010E948E134B01A3
:101240005C01DBCFC701CF911F910F91FF90EF9011
:10125000DF90CF90BF90AF909F908F907F906F90D6
:101260005F904F900895CF93DF931F921F92CDB759
:10127000DEB789836A838091A9049091AA04FC0156
:101280002481358122303105B8F0208131E030935E
:10129000790320939B0310927A0310929C0321E020
:1012A00042E050E0BE016F5F7F4F0E94F2060F9058
:1012B0000F90DF91CF91089580E0F9CFE6EAF4E056
:1012C00081879287682F8DE390E00E9433096EE159
:1012D00070E080E090E00C9444052F923F924F9292
:1012E0005F926F927F928F929F92AF92BF92CF92B6
:1012F000DF92EF92FF920F931F93CF93DF93DC0166
:101300001496ED91FC911597EF2B09F412C1690128
:101310002A01EC01888191E09093790380939B03EB
:1013200010927A0310929C0320E041E050E0CD013E
:101330000E94F206782E882309F4FBC0F12CE12CE0
:1013400033243394EC14FD0408F0F4C08C819D81A7
:1013500086010E191F098017910708F48C01288057
:101360000E941F054B015C0180917303811173C0C2
:10137000602EB0E2B01710F480E2682E3092730352
:1013800021E0C601801B910BE816F90608F420E065
:1013900020937203EFEFE0937103109270038FEFCD
:1013A000860D80936F0330924E0380914E03220C82
:1013B000282A20924E0380914D03813009F090C07D
:1013C00010924D030E941F054B015C0180914E035A
:1013D0008093BB008091750390917603A091770371
:1013E000B0917803892B8A2B8B2BA1F00E941F05CB
:1013F00020917503309176034091770350917803E3
:10140000681979098A099B09261737074807590778
:1014100008F442C08091BC0083FDD8CFF5ECF09376
:10142000BC000E941F054B015C0180917303813059
:1014300009F45AC080917003861510F4609070030F
:10144000AFE4B3E0EDE2F3E080E0861551F19D9169
:1014500091938F5FFACF8091750390917603A0915D
:101460007703B0917803892B8A2B8B2B09F47CCFDF
:101470000E941F05209175033091760340917703F8
:1014800050917803681979098A099B09261737074B
:101490004807590708F068CF809174030E94E1055E
:1014A000612C10922C0360922B036016110609F038
:1014B00040C042018E0C9F1C5401C5018819990936
:1014C0008017910798F589819A81DC01ED91FC9153
:1014D0000284F385E02D1995F50181935F01EDCF2D
:1014E00085EE8093BC009DCF80917503909176032B
:1014F000A0917703B0917803892B8A2B8B2B09F469
:1015000094CF0E941F05209175033091760340917E
:10151000770350917803681979098A099B0926177E
:1015200037074807590708F080CFB6CFE00EF11E05
:1015300009CF712C872DDF91CF911F910F91FF90D3
:10154000EF90DF90CF90BF90AF909F908F907F9063
:101550006F905F904F903F902F900895CF93DF93BF
:101560001F92CDB7DEB7198221E030E0AE014F5FA8
:101570005F4FBA018091A9049091AA040E946D095D
:1015800089810F90DF91CF910895CF92DF92EF92F2
:10159000FF92CF93DF9397FF1BC06B017C016DE23D
:1015A0008DE993E00E944802EC0166277727CB0182
:1015B0006C197D098E099F094AE00E9403088C0F6F
:1015C0009D1FDF91CF91FF90EF90DF90CF90089516
:1015D0004AE0DF91CF91FF90EF90DF90CF900C9495
:1015E0000308BC01990F880B990B0C94C50ACF9383
:1015F000DF930E94F10AEC0188E692E00E94F60770
:101600008C0F9D1FDF91CF9108950C9497168F92A8
:101610009F92AF92BF92CF92DF92EF92FF920F9381
:101620001F93CF93DF93CDB7DEB763970FB6F894D0
:10163000DEBF0FBECDBF7C018B01FB01349680E283
:10164000DF011D928A95E9F784E290E0A0E0B0E026
:10165000FB0180839183A283B383F7018581968107
:10166000A781B085FB0184839583A683B78383E03C
:1016700090E0A0E0B0E080879187A287B3870E94C6
:101680007605D80150966D937D938D939C935397D7
:101690008CE0FE013196DF011D928A95E9F7AE01DB
:1016A000435F5F4F86E0FA0111928A95E9F78AE17C
:1016B0008B8B26E030E0BE016D5E7F4FD701139625
:1016C0008D919C910E946D096D857E85072E000C81
:1016D000880B990B0E94AA1420E030E040E85DE3FB
:1016E0000E945F154B015C016F857889072E000C05
:1016F000880B990B0E94AA1420E030E040E85DE3DB
:101700000E945F156B017C0169897A89072E000CA4
:10171000880B990B0E94AA1420E030E040E85DE3BA
:101720000E945F15F801848A958AA68AB78AC08EBE
:10173000D18EE28EF38E648F758F868F978F81E0C6
:1017400063960FB6F894DEBF0FBECDBFDF91CF9189
:101750001F910F91FF90EF90DF90CF90BF90AF90CF
:101760009F908F9008950F931F93CF93DF938C01D9
:10177000EB0188E2FB0111928A95E9F74BE050E01A
:1017800067E772E0CE010E9420171B8681E090E09F
:10179000A0E0B0E08C879D87AE87BF87F801858188
:1017A0009681A781B085888B998BAA8BBB8B83E0B0
:1017B00090E0A0E0B0E08C8B9D8BAE8BBF8B1CA229
:1017C0001DA21EA21FA2188E198E1A8E1B8E1C8E91
:1017D0001D8E1E8E1F8E8AE097EDA3E2BCE388A3C8
:1017E00099A3AAA3BBA3DF91CF911F910F91089555
:1017F00085ED8093BC008091750390917603A09154
:101800007703B09178030796A11DB11D23E0B6952B
:10181000A795979587952A95D1F72091BC0024FD2F
:1018200003C010927303089540917503509176039D
:101830006091770370917803452B462B472B69F312
:101840000097A105B10541F02AE22A95F1F700C001
:101850000197A109B109E1CF809174030C94E105CE
:101860001F920F920FB60F9211240BB60F922F9367
:101870003F934F935F936F937F938F939F93AF9318
:10188000BF93EF93FF938DE993E00E942602FF91AF
:10189000EF91BF91AF919F918F917F916F915F91E8
:1018A0004F913F912F910F900BBE0F900FBE0F9055
:1018B0001F9018951F920F920FB60F9211240BB61E
:1018C0000F922F938F939F93EF93FF93E091AD032C
:1018D000F091AE038081E091B303F091B40382FDF7
:1018E0001DC090818091B6038F5F8F732091B703E5
:1018F000821741F0E091B603F0E0E356FC4F958F7C
:101900008093B603FF91EF919F918F912F910F904C
:101910000BBE0F900FBE0F901F9018958081F2CFD5
:101920001F920F920FB60F9211242F933F938F9314
:101930009F93AF93BF938091030390910403A09171
:101940000503B09106033091020323E0230F2D37E6
:1019500058F50196A11DB11D209302038093030346
:1019600090930403A0930503B093060380910703AB
:1019700090910803A0910903B0910A030196A11D5B
:10198000B11D8093070390930803A0930903B093BC
:101990000A03BF91AF919F918F913F912F910F902B
:1019A0000FBE0F901F90189526E8230F0296A11DD9
:1019B000B11DD2CF1F920F920FB60F9211240BB60A
:1019C0000F922F933F934F935F936F937F938F93D8
:1019D0009F93AF93BF93EF93FF93E0910E02F0912B
:1019E0000F021995FF91EF91BF91AF919F918F9148
:1019F0007F916F915F914F913F912F910F900BBE0F
:101A00000F900FBE0F901F9018951F920F920FB658
:101A10000F9211240BB60F922F933F934F935F9326
:101A20006F937F938F939F93AF93BF93EF93FF93A6
:101A3000E0910C02F0910D021995FF91EF91BF9189
:101A4000AF919F918F917F916F915F914F913F9156
:101A50002F910F900BBE0F900FBE0F901F901895F7
:101A60001F920F920FB60F9211240BB60F922F9365
:101A70003F934F935F936F937F938F939F93AF9316
:101A8000BF93EF93FF93E0910202F0910302199547
:101A9000FF91EF91BF91AF919F918F917F916F9146
:101AA0005F914F913F912F910F900BBE0F900FBE02
:101AB0000F901F9018951F920F920FB60F9211243E
:101AC0000BB60F922F933F934F935F936F937F9338
:101AD0008F939F93AF93BF93EF93FF93E091000297
:101AE000F09101021995FF91EF91BF91AF919F91F4
:101AF0008F917F916F915F914F913F912F910F90B7
:101B00000BBE0F900FBE0F901F9018951F920F9253
:101B10000FB60F9211240BB60F922F933F934F9352
:101B20005F936F937F938F939F93AF93BF93EF9345
:101B3000FF93E0910A02F0910B021995FF91EF914A
:101B4000BF91AF919F918F917F916F915F914F91D5
:101B50003F912F910F900BBE0F900FBE0F901F90D3
:101B600018951F920F920FB60F9211240BB60F9279
:101B70002F933F934F935F936F937F938F939F9395
:101B8000AF93BF93EF93FF93E0910802F0910902A6
:101B90001995FF91EF91BF91AF919F918F917F9197
:101BA0006F915F914F913F912F910F900BBE0F90CE
:101BB0000FBE0F901F9018951F920F920FB60F92A5
:101BC00011240BB60F922F933F934F935F936F9314
:101BD0007F938F939F93AF93BF93EF93FF93E09186
:101BE0000602F09107021995FF91EF91BF91AF9115
:101BF0009F918F917F916F915F914F913F912F9125
:101C00000F900BBE0F900FBE0F901F9018951F9254
:101C10000F920FB60F9211240BB60F922F933F9392
:101C20004F935F936F937F938F939F93AF93BF93E4
:101C3000EF93FF93E0910402F09105021995FF9153
:101C4000EF91BF91AF919F918F917F916F915F9134
:101C50004F913F912F910F900BBE0F900FBE0F90A1
:101C60001F9018951F920F920FB60F9211240BB66A
:101C70000F922F933F934F935F936F937F938F9325
:101C80009F93AF93BF93EF93FF938091B900887FA9
:101C9000803609F44DC008F040C0883209F4A9C06C
:101CA00028F5803109F49DC0C8F4882309F4FBC0ED
:101CB000883009F496C0FF91EF91BF91AF919F9149
:101CC0008F917F916F915F914F913F912F910F90E5
:101CD0000BBE0F900FBE0F901F901895883109F41E
:101CE00088C0803241F78093710314C0803409F4B6
:101CF0009DC040F48033B9F38833E9F680937103D3
:101D000085ECB0C0803509F485C0883509F496C0EB
:101D1000883489F60E94F80BCECF883909F48CC03C
:101D200038F5883729F050F4883611F0803719F6E5
:101D300083E0809373031092010357C0883809F43D
:101D40007BC0803919F0803809F0B5CF809101034C
:101D5000803208F071C0E091010381E08E0F809322
:101D600001038091BB00F0E0EF51FD4F80833DC047
:101D7000803B39F0E0F4803A09F479C0883A09F000
:101D80009ACF84E0809373031092E0021092DF02F6
:101D9000E0912903F0912A0319958091DF028111C6
:101DA0000FC081E08093DF021092BF0209C0803C27
:101DB00009F4A6CF883C09F4A3CF883B09F07BCF78
:101DC000E091E00281E08E0F8093E002F0E0E154C8
:101DD000FD4F80818093BB009091E0028091DF02F3
:101DE00029C080914E038093BB0085EC8093BC009A
:101DF00062CF9091700380916F03981758F5E0912E
:101E0000700381E08E0F80937003F0E0E15BFC4F84
:101E10008081E9CFE091700381E08E0F80937003A1
:101E20008091BB00F0E0E15BFC4F808390917003F8
:101E300080916F039817C8F285E8D8CFE0917003BE
:101E400081E08E0F809370038091BB00F0E0E15B36
:101E5000FC4F80838091720381115CCF81E080937D
:101E60004D0384EA8093BC001092730324CF85EC69
:101E70008093BC001092730380910103803230F490
:101E8000E0910103F0E0EF51FD4F108260910103FA
:101E900070E0E0912703F091280381EE92E019951C
:101EA0001092010308CF1092710334CF1092A00357
:101EB00010929F0388EE93E0A0E0B0E08093A1032E
:101EC0009093A203A093A303B093A4032AE332E068
:101ED00030939E0320939D0325EC30E03093AA03BA
:101EE0002093A90324EC30E03093AC032093AB03A0
:101EF00020EC30E03093AE032093AD0321EC30E0D2
:101F00003093B0032093AF0322EC30E03093B20360
:101F10002093B10326EC30E03093B4032093B30355
:101F20001092B6031092B7031092B8031092B9033F
:101F300010929D0410929C0480939E0490939F04A1
:101F4000A093A004B093A1048CE492E090939B042E
:101F500080939A048EE592E09093A7048093A60460
:101F600087E390E0A0E0B0E08093AB049093AC04F2
:101F7000A093AD04B093AE0486E090E00E94FB1500
:101F8000FC0188E280838AE994E092838183138252
:101F900080E290E095838483F093AA04E093A904FF
:101FA000EAE3F4E040E050E060E87FE380E090E0C6
:101FB000AFE7B3E440835183628373831482158255
:101FC000168217821086118612861386848795875B
:101FD000A687B787108A118A128A138A148A158AEB
:101FE000168A178A789624E0EA39F20719F70895D5
:101FF000CF93DF93CDB7DEB7A4970FB6F894DEBFCB
:102000000FBECDBF789484B5826084BD84B58160F5
:1020100084BD85B5826085BD85B5816085BD8091B3
:102020006E00816080936E0010928100809181002B
:102030008260809381008091810081608093810023
:10204000809180008160809380008091B1008460E5
:102050008093B1008091B00081608093B000809146
:1020600091008260809391008091910081608093C3
:102070009100809190008160809390008091A100F8
:1020800082608093A1008091A10081608093A10073
:102090008091A00081608093A000809121018260E6
:1020A00080932101809121018160809321018091A1
:1020B000200181608093200180917A008460809368
:1020C0007A0080917A00826080937A0080917A0011
:1020D000816080937A0080917A00806880937A0092
:1020E0001092C100E091AD03F091AE0382E08083D5
:1020F000E091A903F091AA031082E091AB03F09163
:10210000AC0380E180831092B503E091B103F091BC
:10211000B20386E08083E091AF03F091B003808149
:1021200080618083E091AF03F091B003808188608B
:102130008083E091AF03F091B00380818068808359
:10214000E091AF03F091B00380818F7D8083009197
:10215000A9041091AA040E94CA0581E0F8018383B2
:1021600005E510E0DD24D394E090A904F090AA04E2
:102170000E94CA05F701D382C7010E94100781118E
:10218000A5C26AE070E080E090E00E944405015042
:10219000110951F78EE792E00E945508FFCF62E3E4
:1021A00070E080E090E00E94440560E08EE390E003
:1021B0000E9433096AE070E080E090E00E944405EC
:1021C00060E087E090E00E94330960E08FE390E0F8
:1021D0000E9433096AE070E080E090E00E944405CC
:1021E0008CE090E00E945E0964E170E080E090E0A5
:1021F0000E94440568EE73E080E090E00E94440590
:102200000091AF041091B00490E080E00E945E095C
:1022100069E170E080E090E00E94440560E087E0C2
:1022200090E00E94330960E88FE390E00E94330958
:102230006AE070E080E090E00E944405C8010E94DE
:102240005E0964E170E080E090E00E94440561E096
:1022500081E30E94FC0361E080E30E94FC0361E0F3
:1022600087E00E94FC0360E082E00E94FC0360E0E3
:1022700085E00E94FC0361E082E30E94FC0361E0D0
:1022800083E30E94FC0361E086E00E94FC0360E0BF
:1022900083E00E94FC0360E084E00E94FC0361E0B4
:1022A0008FE20E94FC0361E08EE20E94FC0361E089
:1022B00088E00E94FC0360E082E10E94FC0360E091
:1022C00081E10E94FC0361E08CE20E94FC0361E07A
:1022D0008DE20E94FC0361E089E00E94FC0360E063
:1022E00083E10E94FC0360E080E10E94FC0386E73A
:1022F00093E0909301028093000280916A008360D2
:1023000080936A00EC9A8CE893E090930B028093A0
:102310000A0280916900806C80936900EB9A82EADE
:1023200093E0909303028093020280916A008C6094
:1023300080936A00ED9A88EB93E090930902809372
:10234000080280916900806380936900EA9AEAE359
:10235000F4E000E010E020E830E48AE097EDA3EA42
:10236000BCE3C12CD12C4FE7E42E43E4F42E0083D0
:1023700011832283338384839583A683B7838087E5
:102380009187A287B387C486D586E686F786789636
:1023900044E0EA39F40759F70E941F056B017C01FC
:1023A0008091230390912403A0912503B0912603EB
:1023B000A7019601281B390B4A0B5B0BCA01B90117
:1023C0000E94AA1420E034E244E759E40E94001479
:1023D0006F8B788F898F9A8FC0922303D0922403BA
:1023E000E0922503F092260320E030EE44EC56E420
:1023F0000E945F1569837A838B839C836D837E83C0
:102400008F83988769877A878B879C876D877E877C
:102410008F87988B4BE053E05C8F4B8FCE010196FA
:102420007C018A01F80161917191819191918F01F3
:10243000F70121913191419151917F016801F4E0BF
:10244000CF1AD1080E948F13F601608371838283B3
:102450009383F3E00B311F0729F79E012F5F3F4F56
:102460003E8B2D8BF90190E080E0DC01AA0FBB1FB1
:10247000A55EBC4F4D915C91052E000C660B770B51
:10248000419351936193719301968430910569F75B
:1024900042E352E05CA34BA38EE292E098A38F8FBD
:1024A000E6E2F2E0FE8FED8F8AE3282E84E0382EFC
:1024B0009E012F5F3F4F3AA329A3EB8DFC8D6191C5
:1024C000719181919191FC8FEB8FE9A1FAA1C1905B
:1024D000D190E190F190FAA3E9A30E9472146C19D3
:1024E0007D09072E000C880B990B0E94AA142B0162
:1024F0003C01F10120893189428953890E948E1360
:102500002F89388D498D5A8D0E940014698B7A8BE2
:102510008B8B9C8BA30192016F89788D898D9A8D0D
:102520000E945F15F10124893589468957890E94E7
:102530008F136B017C01F101C48AD58AE68AF78A80
:102540002081318142815381C301B2010E945F1514
:102550004B015C01F10124813581468157816989F4
:102560007A898B899C890E945F159B01AC01C5010A
:10257000B4010E948F134B015C01F101208531856C
:1025800042855385C701B6010E945F159B01AC01CE
:10259000C501B4010E948F136B017C019F770E94DB
:1025A00072147A8B698BF10184849584A684B78434
:1025B000072E000C880B990B0E94AA14A501940108
:1025C0000E945A15181634F4C501B4010E94721401
:1025D0007A8B698B20E030E0A901C701B6010E9427
:1025E000FB130FEF1FEF87FD02C001E010E0F101C8
:1025F000408A518A628A738AEBA1FCA1F190FCA304
:10260000EBA3EF8DF8A1E190F8A3EF8FED8DFE8D98
:1026100080813296FE8FED8F69897A890E942D0420
:102620000130110509F048C061E08E2D0E94CE03F3
:1026300060E08F2D0E94CE0360E08F2D0E94CE03BC
:1026400028E1220E311C4B8D5C8D4B51534009F01B
:1026500034CF06E112E0F80161917191819191917D
:102660008F010E94C50A8BEB92E00E94550826E27A
:1026700032E02017310779F701E010E00C0F1D1F41
:10268000005F1F4FED89FE89619171918191919158
:10269000FE8BED8B0E94C50A8BEB92E00E945508E1
:1026A0002D893E892017310769F788E692E00E945C
:1026B000F6070E94B50270CE60E08E2D0F3F1F4FCF
:1026C00009F0B8CF0E94CE0361E0B3CF0E94AE0AFA
:1026D000803A59F068EE73E080E090E00E94440593
:1026E0000E94AE0A803A09F055CD90E080E00E9449
:1026F0005E0960E28FE390E00E9433096EE170E0D2
:1027000080E090E00E9444050E94AE0A803A09F4FD
:1027100046CD6AE070E080E090E0F4CF5058BB27EF
:10272000AA270E94A6130C9420150E94121538F0B7
:102730000E94191520F039F49F3F19F426F40C94E7
:102740000F150EF4E095E7FB0C940915E92F0E9494
:10275000311558F3BA17620773078407950720F0FD
:1027600079F4A6F50C9453150EF4E0950B2EBA2FC0
:10277000A02D0B01B90190010C01CA01A001112487
:10278000FF27591B99F0593F50F4503E68F11A1633
:10279000F040A22F232F342F4427585FF3CF4695C4
:1027A00037952795A795F0405395C9F77EF41F16E6
:1027B000BA0B620B730B840BBAF09150A1F0FF0FB0
:1027C000BB1F661F771F881FC2F70EC0BA0F621F9C
:1027D000731F841F48F4879577956795B795F7958C
:1027E0009E3F08F0B0CF9395880F08F09927EE0F21
:1027F0009795879508950E94E51408F481E008955F
:102800000E9414140C9420150E94191558F00E946F
:10281000121540F029F45F3F29F00C94091551116D
:102820000C9454150C940F150E94311568F39923DC
:10283000B1F3552391F3951B550BBB27AA276217BC
:102840007307840738F09F5F5F4F220F331F441FC9
:10285000AA1FA9F335D00E2E3AF0E0E832D09150FD
:102860005040E695001CCAF72BD0FE2F29D0660FEA
:10287000771F881FBB1F261737074807AB07B0E82D
:1028800009F0BB0B802DBF01FF2793585F4F3AF033
:102890009E3F510578F00C9409150C9454155F3F38
:1028A000E4F3983ED4F3869577956795B795F795B9
:1028B0009F5FC9F7880F911D9695879597F90895A1
:1028C000E1E0660F771F881FBB1F6217730784073D
:1028D000BA0720F0621B730B840BBA0BEE1F88F74C
:1028E000E09508950E9479146894B1110C945415E0
:1028F00008950E94391588F09F5798F0B92F9927AD
:10290000B751B0F0E1F0660F771F881F991F1AF0DA
:10291000BA95C9F714C0B13091F00E945315B1E0D7
:1029200008950C945315672F782F8827B85F39F0D6
:10293000B93FCCF3869577956795B395D9F73EF473
:1029400090958095709561957F4F8F4F9F4F08951B
:10295000E89409C097FB3EF4909580957095619539
:102960007F4F8F4F9F4F9923A9F0F92F96E9BB27EF
:102970009395F695879577956795B795F111F8CF6B
:10298000FAF4BB0F11F460FF1BC06F5F7F4F8F4FD6
:102990009F4F16C0882311F096E911C0772321F0CC
:1029A0009EE8872F762F05C0662371F096E8862F64
:1029B00070E060E02AF09A95660F771F881FDAF7BB
:1029C000880F9695879597F90895990F0008550FE8
:1029D000AA0BE0E8FEEF16161706E807F907C0F0A5
:1029E00012161306E407F50798F0621B730B840BAD
:1029F000950B39F40A2661F0232B242B252B21F487
:102A000008950A2609F4A140A6958FEF811D811D26
:102A1000089597F99F6780E870E060E008959FEF60
:102A200080EC089500240A94161617061806090665
:102A3000089500240A941216130614060506089534
:102A4000092E0394000C11F4882352F0BB0F40F4BC
:102A5000BF2B11F460FF04C06F5F7F4F8F4F9F4FFC
:102A6000089557FD9058440F551F59F05F3F71F07E
:102A70004795880F97FB991F61F09F3F79F08795E5
:102A80000895121613061406551FF2CF4695F1DF6E
:102A900008C0161617061806991FF1CF86957105FE
:102AA000610508940895E894BB2766277727CB0132
:102AB00097F908950E94E51408F48FEF08950E9495
:102AC00072150C9420150E94121538F00E941915E9
:102AD00020F0952311F00C9409150C940F15112476
:102AE0000C9454150E94311570F3959FC1F3950F06
:102AF00050E0551F629FF001729FBB27F00DB11D82
:102B0000639FAA27F00DB11DAA1F649F6627B00D11
:102B1000A11D661F829F2227B00DA11D621F739FFA
:102B2000B00DA11D621F839FA00D611D221F749F08
:102B30003327A00D611D231F849F600D211D822F4F
:102B4000762F6A2F11249F5750409AF0F1F0882376
:102B50004AF0EE0FFF1FBB1F661F771F881F9150A3
:102B60005040A9F79E3F510580F00C9409150C9434
:102B700054155F3FE4F3983ED4F3869577956795B7
:102B8000B795F795E7959F5FC1F7FE2B880F911DCD
:102B90009695879597F908950E94E514880B990BEF
:102BA0000895A1E21A2EAA1BBB1BFD010DC0AA1F8E
:102BB000BB1FEE1FFF1FA217B307E407F50720F0A6
:102BC000A21BB30BE40BF50B661F771F881F991F21
:102BD0001A9469F760957095809590959B01AC016A
:102BE000BD01CF010895EE0FFF1F881F8BBF079017
:102BF000F691E02D19940F931F93CF93DF938230BA
:102C0000910510F482E090E0E091B304F091B404F7
:102C100030E020E0B0E0A0E0309799F421153105D4
:102C200009F44AC0281B390B24303105D8F58A81B4
:102C30009B816115710589F1FB0193838283FE01FC
:102C400011C0408151810281138148175907E0F07A
:102C50004817590799F4109761F012960C93129740
:102C600013961C933296CF01DF91CF911F910F9154
:102C700008950093B3041093B404F4CF21153105E3
:102C800051F04217530738F0A901DB019A01BD0149
:102C9000DF01F801C1CFEF01F9CF9093B404809325
:102CA000B304CDCFFE01E20FF31F81939193225025
:102CB000310939832883D7CF2091B1043091B204F0
:102CC000232B41F420911202309113023093B2046D
:102CD0002093B10420911002309111022115310589
:102CE00041F42DB73EB74091140250911502241BB8
:102CF000350BE091B104F091B204E217F307A0F4B0
:102D00002E1B3F0B2817390778F0AC014E5F5F4F41
:102D10002417350748F04E0F5F1F5093B2044093BD
:102D2000B104819391939FCFF0E0E0E09CCFCF93EB
:102D3000DF930097E9F0FC01329713821282A09191
:102D4000B304B091B404ED0130E020E01097A1F499
:102D500020813181820F931F2091B1043091B20400
:102D60002817390709F061C0F093B204E093B10469
:102D7000DF91CF910895EA01CE17DF07E8F54A8188
:102D80005B819E0141155105B1F7E901FB83EA839F
:102D900049915991C40FD51FEC17FD0761F480814B
:102DA00091810296840F951FE9019983888382811E
:102DB00093819B838A83F0E0E0E012968D919C9151
:102DC00013970097B9F52D913C911197CD0102967B
:102DD000820F931F2091B1043091B2042817390754
:102DE00039F6309751F51092B4041092B304B093B1
:102DF000B204A093B104BCCFD383C283408151817C
:102E0000840F951FC817D90761F44E5F5F4F888103
:102E10009981480F591F518340838A819B819383F5
:102E200082832115310509F0B0CFF093B404E0930B
:102E3000B3049ECFFD01DC01C0CF13821282D7CF35
:102E4000FB01DC014150504048F001900D92002000
:102E5000C9F701C01D9241505040E0F70895F89421
:102E6000FFCF8205820582058205820582058205E3
:102E700082050000B5048000000000000000000092
:102E80000000000000000000070006000800090024
:102E900031322F2C30332E2D000000004802B201B9
:102EA000DF0195021002EE010202000000008C0713
:102EB0005F07BB07350758074507360700000000C6
:102EC0008305050B8405070BB30B0D0A006E616EBD
:102ED00000696E66006F766600424E4F30353500F1
:102EE0004F6F6F70732C206E6F20424E4F30353510
:102EF000206465746563746564202E2E2E204368FB
:102F000065636B20796F757220776972696E6720CF
:102F10006F72204932432041444452210020000076
:020000040003F7
:10E000000D9489F10D94B2F10D94B2F10D94B2F129
:10E010000D94B2F10D94B2F10D94B2F10D94B2F1F0
:10E020000D94B2F10D94B2F10D94B2F10D94B2F1E0
:10E030000D94B2F10D94B2F10D94B2F10D94B2F1D0
:10E040000D94B2F10D94B2F10D94B2F10D94B2F1C0
:10E050000D94B2F10D94B2F10D94B2F10D94B2F1B0
:10E060000D94B2F10D94B2F10D94B2F10D94B2F1A0
:10E070000D94B2F10D94B2F10D94B2F10D94B2F190
:10E080000D94B2F10D94B2F10D94B2F10D94B2F180
:10E090000D94B2F10D94B2F10D94B2F10D94B2F170
:10E0A0000D94B2F10D94B2F10D94B2F10D94B2F160
:10E0B0000D94B2F10D94B2F10D94B2F10D94B2F150
:10E0C0000D94B2F10D94B2F10D94B2F10D94B2F140
:10E0D0000D94B2F10D94B2F10D94B2F10D94B2F130
:10E0E0000D94B2F141546D656761323536300041AF
:10E0F000726475696E6F206578706C6F72657220DE
:10E1000073746B3530305632206279204D4C530099
:10E11000426F6F746C6F616465723E004875683F52
:10E1200000436F6D70696C6564206F6E203D200048
:10E130004350552054797065202020203D20005FF9
:10E140005F4156525F415243485F5F3D2000415658
:10E1500052204C696243205665723D20004743437C
:10E160002056657273696F6E203D20004350552024
:10E1700049442020202020203D20004C6F7720663D
:10E18000757365202020203D20004869676820665F
:10E190007573652020203D200045787420667573D6
:10E1A00065202020203D20004C6F636B2066757336
:10E1B000652020203D20004D617220203720323024
:10E1C000313300312E362E3800342E332E350056A2
:10E1D00023202020414444522020206F7020636F70
:10E1E00064652020202020696E73747275637469E1
:10E1F0006F6E2061646472202020496E74657272B3
:10E20000757074006E6F20766563746F7200726A49
:10E210006D702020006A6D70200057686174207056
:10E220006F72743A00506F7274206E6F7420737541
:10E2300070706F72746564004D7573742062652030
:10E2400061206C6574746572002000577269747483
:10E25000696E672045450052656164696E672045B7
:10E26000450045452065727220636E743D00504F35
:10E27000525400303D5A65726F2061646472003FF1
:10E280003D43505520737461747300403D454550C3
:10E29000524F4D207465737400423D426C696E6B41
:10E2A000204C454400453D44756D70204545505215
:10E2B0004F4D00463D44756D7020464C415348001B
:10E2C000483D48656C70004C3D4C69737420492F83
:10E2D0004F20506F72747300513D51756974005234
:10E2E0003D44756D702052414D00563D73686F7707
:10E2F00020696E7465727275707420566563746FF0
:10E30000727300593D506F727420626C696E6B00BD
:10E310002A0011241FBECFEFD1E2DEBFCDBF01E046
:10E320000CBF12E0A0E0B2E0EEE1FDEF03E00BBFB6
:10E3300002C007900D92A030B107D9F712E0A0E01B
:10E34000B2E001C01D92AE30B107E1F70F9460F367
:10E350000D948DFE01E20EBF0FEF0DBF11241FBE05
:10E360000D9460F30D9400F020E030E040ED57E0B4
:10E3700005C0FA013197F1F72F5F3F4F2817390792
:10E38000C0F308959C01260F311DC901A0E0B0E043
:10E390002F5F3F4FABBFFC018791882361F08093D3
:10E3A000C6008091C00086FFFCCF8091C0008064D1
:10E3B0008093C000EACF08958DE08093C6008091DD
:10E3C000C00086FFFCCF8091C00080648093C000B5
:10E3D0008AE08093C6008091C00086FFFCCF8091C8
:10E3E000C00080648093C00008950F94C2F10F9420
:10E3F000DCF10895FC019081992359F09093C600B7
:10E400008091C00086FFFCCF8091C0008064809323
:10E41000C0003196992379F70895282F982F929567
:10E420009F70892F805D8A3308F0895F8093C600D2
:10E430008091C00086FFFCCF8091C00080648093F3
:10E44000C000822F8F70982F905D9A3308F0995FEB
:10E450009093C6008091C00086FFFCCF8091C000E1
:10E4600080648093C00008959C01FB01853691056E
:10E470001CF46330710594F0C90164E670E00F94F8
:10E480002EFE605D7F4F6093C6008091C00086FFC6
:10E49000FCCF8091C00080648093C0002B30310598
:10E4A00014F43297B4F0C90164E670E00F942EFEC4
:10E4B0006AE070E00F942EFE605D7F4F6093C600AF
:10E4C0008091C00086FFFCCF8091C0008064809363
:10E4D000C000C9016AE070E00F942EFEC0968093E0
:10E4E000C6008091C00086FFFCCF8091C000806490
:10E4F0008093C00008951F93182F8EE692EE60E07F
:10E500000F94C2F11093C6008091C00086FFFCCF2B
:10E510008091C00080648093C0000F94DCF11F9153
:10E5200008952F923F924F925F926F927F928F92B7
:10E530009F92AF92BF92CF92DF92EF92FF920F9392
:10E540001F93DF93CF93CDB7DEB762970FB6F894E2
:10E55000DEBF0FBECDBF382E622ECA01DB015C01CB
:10E560006D01772420E2222E2E010894411C511CBB
:10E570008BC081E0A81680E0B80681E0C80680E084
:10E58000D80628F0C601AA27BB270F940DF2BB2797
:10E59000AD2D9C2D8B2D0F940DF28A2D0F940DF225
:10E5A0002092C6008091C00086FFFCCF8091C00001
:10E5B00080648093C0009DE29093C6008091C0006B
:10E5C00086FFFCCF8091C00080648093C0002092C1
:10E5D000C6008091C00086FFFCCF8091C00080649F
:10E5E0008093C00019828601750188249924A1E0D6
:10E5F0003A1651F03A1620F0B2E03B1661F409C029
:10E600000BBFF701779007C0C7010F9477FE782EF4
:10E6100002C0F7017080872D0F940DF22092C60082
:10E620008091C00086FFFCCF8091C0008064809301
:10E63000C000872D8052F401EF70F0708F3520F408
:10E64000E40DF51D708204C0E40DF51D8EE280839B
:10E650000894E11CF11C011D111D0894811C911CE2
:10E6600090E18916910409F0C2CF80E190E0A0E02A
:10E67000B0E0A80EB91ECA1EDB1E198AC2010F9493
:10E68000FAF10F94DCF16A94662009F072CF629679
:10E690000FB6F894DEBF0FBECDBFCF91DF911F91B3
:10E6A0000F91FF90EF90DF90CF90BF90AF909F9031
:10E6B0008F907F906F905F904F903F902F90089534
:10E6C0002F923F924F925F926F927F928F929F9282
:10E6D000AF92BF92CF92DF92EF92FF920F931F9370
:10E6E000DF93CF93CDB7DEB7CD53D1400FB6F894BB
:10E6F000DEBF0FBECDBF01E20EBF0FEF0DBF94B75F
:10E70000F894A89514BE80916000886180936000A1
:10E7100010926000789493FF05C0E0910002F091A0
:10E7200001021995279A2F9A8091C00082608093E8
:10E73000C00080E18093C40088E18093C1000000A4
:10E74000EE24FF24870144E0A42EB12CCC24DD2448
:10E7500024C0C5010197F1F70894E11CF11C011DCB
:10E76000111D21E2E2162EE4F20620E0020720E06D
:10E77000120718F031E0C32ED12CC801B70127ECE5
:10E780003BE140E050E00F9441FE611571058105C9
:10E79000910519F485B1805885B98091C00087FD35
:10E7A00003C0C114D104A9F2A6014F5F5F4FC25E3E
:10E7B000DE4F59834883CE51D140C25EDE4F8881FF
:10E7C0009981CE51D140019711F00D9410FEC05D9A
:10E7D000DE4F19821882C053D14060E0C15DDE4F28
:10E7E0001882CF52D14088249924C35DDE4F19820C
:10E7F0001882CD52D140C05EDE4F188219821A8233
:10E800001B82C052D140CE5CDE4F188219821A8220
:10E810001B82C253D140EE24FF2487010BBFF701B6
:10E8200007911691C45CDE4F19830883CC53D14005
:10E830000D940BFEC25EDE4F28813981CE51D1404E
:10E840002130310509F52091C600C25EDE4F1982E4
:10E850001882CE51D14022C02F5F3F4F4F4F5F4FA4
:10E86000213082E138078AE7480780E0580780F0C6
:10E87000C45CDE4FE881F981CC53D140EF5FFF4F9C
:10E8800019F0EE27FF27099420E030E040E050E047
:10E890008091C00087FFE0CF2091C600C35DDE4FAE
:10E8A00048815981CD52D1404F5F5F4FC35DDE4FEC
:10E8B00059834883CD52D140213209F063C64A3092
:10E8C000510508F05FC60894811C911C53E0851621
:10E8D000910409F059C600E010E018C081E280936D
:10E8E000C6008091C00086FFFCCF8091C00080648C
:10E8F0008093C0002F5F3F4F2931310579F70F9486
:10E90000DCF10F5F1F4F0530110519F020E030E0FA
:10E91000E5CF10920A0210920B0210920C02109294
:10E920000D02109206021092070210920802109235
:10E930000902109202021092030210920402109235
:10E9400005028FEE90EE60E00F94F5F180E191EE1C
:10E9500060E00F94C2F18091C00087FFFCCF9091DE
:10E96000C600903608F09F759032B8F09093C600BC
:10E970008091C00086FFFCCF8091C00080648093AE
:10E98000C000A0E2A093C6008091C00086FFFCCF2B
:10E990008091C00080648093C000983409F4D7C18E
:10E9A0009934B8F4923409F459C1933458F490333B
:10E9B00019F1903308F4E3C59F33A1F1903409F0C5
:10E9C000DEC5BDC0953409F470C1963409F0D7C5D1
:10E9D00098C1923509F42BC2933538F49C3409F46C
:10E9E000F5C1913509F0CBC518C2963509F445C279
:10E9F000993509F0C4C567C483E792EE62E00F94CD
:10EA0000F5F110920602109207021092080210927D
:10EA1000090210920A0210920B0210920C0210923C
:10EA20000D0213C18FE792EE62E00F94F5F18FEEC5
:10EA300090EE60E00F94F5F181E291EE60E00F94CA
:10EA4000C2F187EB91EE60E00F94F5F180E391EE77
:10EA500060E00F94C2F184EE90EE60E00F94F5F167
:10EA60008FE391EE60E00F94C2F186E090E061E008
:10EA700070E00F9434F20F94DCF18DE591EE60E0DC
:10EA80000F94C2F189EC91EE60E00F94F5F18EE401
:10EA900091EE60E00F94C2F183EC91EE60E00F9490
:10EAA000F5F18CE691EE60E00F94C2F18EE10F94E7
:10EAB0000DF288E90F940DF281E00F940DF20F949E
:10EAC000DCF18BE791EE60E00F94C2F119E0E0E039
:10EAD000F0E010935700E4918E2F0F940DF20F94F5
:10EAE000DCF18AE891EE60E00F94C2F1E3E0F0E03F
:10EAF00010935700E4918E2F0F940DF20F94DCF1D8
:10EB000089E991EE60E00F94C2F1E2E0F0E0109349
:10EB10005700E4918E2F0F940DF20F94DCF188EAE8
:10EB200091EE60E00F94C2F1E1E0F0E01093570045
:10EB30001491812F0F940DF20F94DCF107CF8BE825
:10EB400092EE62E00F94F5F18BE492EE60E00F94A8
:10EB5000F5F10F94DCF100E010E019C0C8016F2D51
:10EB60000F947FFEFF2031F489E492EE60E00F9471
:10EB7000C2F10BC0F092C6008091C00086FFFCCFAE
:10EB80008091C00080648093C0000F5F1F4FC80158
:10EB900081519F41A0E0B0E0ABBFFC01F790BAE229
:10EBA000FB1621F0E2E000301E07C1F60F94DCF105
:10EBB0000F94DCF187E592EE60E00F94F5F10F948D
:10EBC000DCF1CC24DD2400E010E01EC0C8010F946D
:10EBD00077FEF82E882331F489E492EE60E00F94FA
:10EBE000C2F10BC08093C6008091C00086FFFCCFAD
:10EBF0008091C00080648093C000FE1419F00894D6
:10EC0000C11CD11C0F5F1F4FC80181519F41A0E063
:10EC1000B0E0ABBFFC01E790FAE2EF1621F022E092
:10EC20000030120799F60F94DCF10F94DCF182E6C4
:10EC300092EE60E00F94C2F1C60161E070E00F94C3
:10EC400034F20F94DCF10F94DCF110920202109276
:10EC50000302109204021092050278CE89E992EE26
:10EC600062E00F94F5F1279A2F9A16C02F9880E052
:10EC700090E0E0EDF7E03197F1F7019684369105E9
:10EC8000C1F72F9A80E090E0E0EDF7E03197F1F7DF
:10EC9000019684369105C1F78091C00087FFE6CFC9
:10ECA0008091C00087FFFCCF64C485EA92EE62E0E9
:10ECB0000F94F5F140910202509103026091040219
:10ECC0007091050281E020E10F9491F2809102029F
:10ECD00090910302A0910402B091050280509F4FD1
:10ECE000AF4FBF4F8093020290930302A0930402A0
:10ECF000B093050280509041A040B04008F426CE69
:10ED0000A4CF83EB92EE62E00F94F5F140910602FE
:10ED100050910702609108027091090280E020E1A1
:10ED20000F9491F28091060290910702A09108023F
:10ED3000B091090280509F4FAF4FBF4F80930602A2
:10ED400090930702A0930802B0930902FFCD80ECD4
:10ED500092EE62E00F94F5F183E792EE60E00F949B
:10ED6000F5F18FE792EE60E00F94F5F18BE892EE0B
:10ED700060E00F94F5F189E992EE60E00F94F5F10F
:10ED800085EA92EE60E00F94F5F183EB92EE60E09D
:10ED90000F94F5F180EC92EE60E00F94F5F187ECC2
:10EDA00092EE60E00F94F5F188ED92EE60E00F9442
:10EDB000F5F18FED92EE60E00F94F5F18AEE92EEB0
:10EDC00060E00F94F5F183E093EEBDCD87EC92EE19
:10EDD00062E00F94F5F181E40F947BF282E40F94EA
:10EDE0007BF283E40F947BF284E40F947BF285E45E
:10EDF0000F947BF286E40F947BF287E40F947BF20E
:10EE000088E40F947BF28AE40F947BF28BE40F94F6
:10EE10007BF28CE40F947BF299CD88ED92EE62E068
:10EE20000F94F5F1772473948824992409C48FED05
:10EE300092EE62E00F94F5F140910A0250910B02BC
:10EE400060910C0270910D0282E020E10F9491F22A
:10EE500080910A0290910B02A0910C02B0910D02D8
:10EE600080509F4FAF4FBF4F80930A0290930B0289
:10EE7000A0930C02B0930D0269CD8AEE92EE62E08F
:10EE80000F94F5F184EE90EE60E00F94F5F18FECC5
:10EE900091EE60E00F94F5F1662477244301CC5D98
:10EEA000DE4F19821882C452D140D401C301B695F5
:10EEB000A79597958795CA5DDE4F88839983AA8326
:10EEC000BB83C652D140CC5DDE4FA881B981C4520C
:10EED000D1401196CC5DDE4FB983A883C452D14096
:10EEE000CD0162E070E00F9434F2B0E2B093C6005E
:10EEF0008091C00086FFFCCF8091C0008064809329
:10EF0000C000EDE2E093C6008091C00086FFFCCF18
:10EF10008091C00080648093C000F0E2F093C6004E
:10EF20008091C00086FFFCCF8091C00080648093F8
:10EF3000C000CA5DDE4FE880F9800A811B81C6529D
:10EF4000D140BB27A12F902F8F2D0F940DF2CA5DBA
:10EF5000DE4F8881C652D1400F940DF2B0E2FB2EF5
:10EF6000F092C6008091C00086FFFCCF8091C00067
:10EF700080648093C0000DE30093C6008091C000C0
:10EF800086FFFCCF8091C00080648093C00010E2B7
:10EF90001093C6008091C00086FFFCCF8091C00016
:10EFA00080648093C0008BBEF3012791C65DDE4F65
:10EFB0002883CA52D140A22EBB24CC24DD2408943D
:10EFC000611C711C811C911C8BBEF3018791282E42
:10EFD0003324442455240894611C711C811C911C09
:10EFE0008BBEF3013791C55DDE4F3883CB52D140E4
:10EFF0000894611C711C811C911C8BBEF30147910C
:10F00000C45DDE4F4883CC52D140ADEFEA2EAFEF66
:10F01000FA2EAFEF0A2FAFEF1A2F6E0C7F1C801E57
:10F02000911E142D032DF22CEE24EA0CFB1C0C1D5A
:10F030001D1D0F940DF220E22093C6008091C000A8
:10F0400086FFFCCF8091C00080648093C000C65DC5
:10F05000DE4F8881CA52D1400F940DF230E23093D6
:10F06000C6008091C00086FFFCCF8091C000806404
:10F070008093C000C45DDE4F8881CC52D1400F9494
:10F080000DF240E24093C6008091C00086FFFCCFA5
:10F090008091C00080648093C000C55DDE4F888190
:10F0A000CB52D1400F940DF250E25093C6008091A4
:10F0B000C00086FFFCCF8091C00080648093C000B8
:10F0C0008FEFE8168FEFF80680E0080780E018075A
:10F0D00031F484E092EE60E00F94C2F1DFC0D80119
:10F0E000C7018070907CA070B0708050904CA040A0
:10F0F000B040D1F52FEF3FE340E050E0E222F322B1
:10F1000004231523CA5DDE4FA880B980CA80DB8046
:10F11000C652D140AE0CBF1CC01ED11EAA0CBB1CD7
:10F12000CC1CDD1C8EE092EE60E00F94C2F1BB2798
:10F13000A12F902F8F2D0F940DF28E2D0F940DF285
:10F1400030E23093C6008091C00086FFFCCF8091F2
:10F15000C00080648093C0004EE34093C60080915D
:10F16000C00086FFFCCF87C08EE09EEFA0E0B0E03D
:10F17000E822F9220A231B239CE0E91694E9F90608
:10F1800090E0090790E0190709F088C0C45DDE4FE0
:10F19000A881CC52D140EA2EFF2400E010E0102FCD
:10F1A0000F2DFE2CEE24C55DDE4FB881CB52D14031
:10F1B000EB0EF11C011D111DD601C501817090706F
:10F1C000A070B070DC0199278827E80EF91E0A1F8D
:10F1D0001B1F20EF30E040E050E0A222B322C42207
:10F1E000D52241E1AA0CBB1CCC1CDD1C4A95D1F7F1
:10F1F000EA0CFB1C0C1D1D1D81E090E0A0E0B0E0BE
:10F20000282239224A225B2235E1220C331C441C7D
:10F21000551C3A95D1F7E20CF31C041D151D57013E
:10F220006801AA0CBB1CCC1CDD1C85E192EE60E0E1
:10F230000F94C2F1C801AA27BB270F940DF2BB2778
:10F24000A12F902F8F2D0F940DF28E2D0F940DF274
:10F2500090E29093C6008091C00086FFFCCF809121
:10F26000C00080648093C000AEE3A093C60080918C
:10F27000C00086FFFCCF8091C00080648093C000F6
:10F28000C601AA27BB270F940DF2BB27AD2D9C2DDD
:10F290008B2D0F940DF28A2D0F940DF20F94DCF14B
:10F2A000CC5DDE4FE881F981C452D140F99709F471
:10F2B0004DCBF4E0EF2EF12C012D112D6E0C7F1CA7
:10F2C000801E911EF2CD83E093EE62E00F94F5F183
:10F2D0008AE192EE60E00F94C2F18091C00087FF56
:10F2E000FCCF1091C6001F751093C6008091C0001E
:10F2F00086FFFCCF8091C00080648093C0000F9493
:10F30000DCF1812F81548A3108F036C1163409F4BA
:10F3100095C0173490F4133409F44EC0143430F40B
:10F320001134F1F0123409F01DC130C0143409F465
:10F3300059C0153409F016C16BC01A3409F4C4C0A1
:10F340001B3438F4173409F48FC0183409F00AC19B
:10F35000A1C01B3409F4D2C01C3409F003C1E8C0B9
:10F360008FEF81B90DC082B1809582B980E090E0C5
:10F37000E0EDF7E03197F1F70196883C9105C1F790
:10F380008091C00087FFEFCF12B8EFC08FEF84B934
:10F390000DC085B1809585B980E090E0E0EDF7E0A3
:10F3A0003197F1F70196883C9105C1F78091C00033
:10F3B00087FFEFCF15B8D9C08FEF87B90DC088B1DF
:10F3C000809588B980E090E0E0EDF7E03197F1F7C3
:10F3D0000196883C9105C1F78091C00087FFEFCF6F
:10F3E00018B8C3C08FEF8AB90DC08BB180958BB9A7
:10F3F00080E090E0E0EDF7E03197F1F70196883C8E
:10F400009105C1F78091C00087FFEFCF1BB8ADC059
:10F410008FEF8DB90DC08EB180958EB980E090E0F0
:10F42000E0EDF7E03197F1F70196883C9105C1F7DF
:10F430008091C00087FFEFCF1EB897C08FEF80BBD1
:10F440000DC081B3809581BB80E090E0E0EDF7E0F6
:10F450003197F1F70196883C9105C1F78091C00082
:10F4600087FFEFCF11BA81C08FEF83BB0DC084B38C
:10F47000809584BB80E090E0E0EDF7E03197F1F714
:10F480000196883C9105C1F78091C00087FFEFCFBE
:10F4900014BA6BC08FEF809301010FC080910201FD
:10F4A00080958093020180E090E0E0EDF7E03197F5
:10F4B000F1F70196883C9105C1F78091C00087FF64
:10F4C000EDCF1092020151C08FEF809304010FC065
:10F4D0008091050180958093050180E090E0E0ED4A
:10F4E000F7E03197F1F70196883C9105C1F78091DB
:10F4F000C00087FFEDCF1092050137C08FEF8093DA
:10F5000007010FC08091080180958093080180E079
:10F5100090E0E0EDF7E03197F1F70196883C910536
:10F52000C1F78091C00087FFEDCF109208011DC088
:10F530008FEF80930A010FC080910B01809580931B
:10F540000B0180E090E0E0EDF7E03197F1F70196F4
:10F55000883C9105C1F78091C00087FFEDCF1092E4
:10F560000B0103C085E292EEEEC98091C00087FFD7
:10F57000FCCF8091C600EAC988E392EEE4C98CE131
:10F5800091EEE1C988249924933011F1943028F444
:10F59000913089F09230B8F408C0953061F195301F
:10F5A000F0F0963009F048C043C02B3109F042C951
:10F5B00091E06BE13FC96227C15DDE4F2883CF52E6
:10F5C000D14092E037C9B22FA0E0622793E032C960
:10F5D000822F90E0A82BB92B622794E02BC92E3004
:10F5E00009F039C3622795E0C05DDE4F19821882A9
:10F5F000C053D1401FC9E1E0F0E0EC0FFD1FC05D3A
:10F60000DE4F08811981C053D140E00FF11F2083E4
:10F610000F5F1F4FC05DDE4F19830883C053D14079
:10F6200062270A171B0709F005C9D80196E002C92D
:10F63000261709F010C303C0973009F0FBC87724E0
:10F640009981933109F412C19431C8F4963009F4C8
:10F65000D8C0973050F4923009F406C1933009F4C1
:10F660006DC0913009F059C253C0913109F477C08F
:10F67000923108F0BBC0903109F04FC2F5C098310B
:10F6800009F487C0993150F4953109F4EFC09531F0
:10F6900008F4C6C1963109F040C2C2C19A3109F4DA
:10F6A0006CC09A3108F491C09B3109F45BC09D3164
:10F6B00009F033C29D81903359F48F81882311F46E
:10F6C0009EE11CC0813011F091E018C098E916C08D
:10F6D000892F807591F0903539F4E0E0F0E089E011
:10F6E0008093570094910AC0983539F4E3E0F0E034
:10F6F00089E080935700949101C090E01A821B82A8
:10F700008D818C831D829E831F8227E030E009C299
:10F710001A8288E08B8381E48C8386E58D8382E581
:10F720008E8389E48F8383E5888780E589878FE5E9
:10F730008A8782E38B872BE030E0F3C18A818139AD
:10F7400041F0823941F0803911F48FE005C080E04A
:10F7500003C082E001C08AE01A828B8344C0772410
:10F76000739482C08D81882311F48EE12CC0813086
:10F7700011F081E028C088E926C01A82E1E0F0E0BB
:10F7800089E08093570084918B831C8224E030E0D1
:10F79000C8C18B81803589F48C81883039F4E2E0EE
:10F7A000F0E089E08093570084910DC0E0E0F0E044
:10F7B00089E080935700849106C0E3E0F0E089E09F
:10F7C0008093570084911A82DFCF8D81836C99E0FA
:10F7D000E1E0F0E0082E90935700E89507B600FCB2
:10F7E000FDCF1A821B8223E030E09BC180EC8A832C
:10F7F000CE5CDE4F188219821A821B82C253D1401E
:10F800008EC18A8190E0A0E0B0E0582F44273327D2
:10F8100022278B8190E0A0E0B0E0DC0199278827C7
:10F82000282B392B4A2B5B2B8D8190E0A0E0B0E098
:10F83000282B392B4A2B5B2B8C8190E0A0E0B0E089
:10F84000BA2FA92F982F8827282B392B4A2B5B2BCF
:10F85000220F331F441F551FC05EDE4F288339839C
:10F860004A835B83C052D1401A8259C13A81C95C34
:10F87000DE4F3883C753D140CA5CDE4F1882C6536F
:10F88000D1408B81C82EDD24CA5CDE4F488159816E
:10F89000C653D140C42AD52A933109F082C0CE5C28
:10F8A000DE4F88819981AA81BB81C253D1408050AB
:10F8B000904CA340B04030F583E0CE5CDE4FE88052
:10F8C000F9800A811B81C253D140F70100935B008C
:10F8D00080935700E89507B600FCFDCFCE5CDE4F65
:10F8E000088119812A813B81C253D14000501F4FAA
:10F8F0002F4F3F4FCE5CDE4F088319832A833B8313
:10F90000C253D140C05EDE4F488159816A817B81FC
:10F91000C052D140DE011B9631E08C9111962C91A2
:10F9200011971296C75CDE4F2883C953D140C85C3B
:10F93000DE4F1882C853D14090E0C85CDE4FE881AA
:10F94000F981C853D1408E2B9F2B0C01FA01609393
:10F950005B0030935700E89511244E5F5F4F6F4F67
:10F960007F4F0EEFE02E0FEFF02ECE0CDF1CC114F8
:10F97000D10499F685E0C05EDE4F088119812A81A5
:10F980003B81C052D140F80120935B008093570027
:10F99000E89507B600FCFDCF81E180935700E8951C
:10F9A00035C0C05EDE4F88819981AA81BB81C0527B
:10F9B000D140B695A795979587957C018601ABE0D8
:10F9C000AA2EB12CAC0EBD1E0BC0D5016D915D01F0
:10F9D000C7010F947FFE0894E11CF11C01501040F8
:10F9E0000115110591F7A60160E070E0440F551F65
:10F9F000661F771FC05EDE4FE880F9800A811B8199
:10FA0000C052D1404E0D5F1D601F711F1A82C05E33
:10FA1000DE4F488359836A837B83C052D1407FC0C5
:10FA2000FA80C55CDE4FF882CB53D140C65CDE4F16
:10FA30001882CA53D1408B81C82EDD24C65CDE4FAC
:10FA400008811981CA53D140C02AD12A1A828981DA
:10FA5000BE016D5F7F4F843121F59601C05EDE4FA0
:10FA6000E880F9800A811B81C052D1400BBFF701A9
:10FA700087919691DB018C9311969C936E5F7F4FDB
:10FA8000D801C7010296A11DB11DC05EDE4F88835B
:10FA90009983AA83BB83C052D14022503040F1F6F3
:10FAA00036C0C05EDE4F288139814A815B81C052F9
:10FAB000D1400894C108D108760100E010E0089414
:10FAC000C11CD11C0894E11CF11C011D111DE20E8A
:10FAD000F31E041F151F21BDBB27A52F942F832FB5
:10FAE00082BD2F5F3F4F4F4F5F4FF89A80B5DB01CC
:10FAF0008D93BD012E153F054007510761F7C05E8C
:10FB0000DE4F288339834A835B83C052D1409601FC
:10FB10002D5F3F4FFB01108204C080EC8A8322E0FE
:10FB200030E08BE18093C6008091C00086FFFCCF5F
:10FB30008091C00080648093C000C15DDE4FF88179
:10FB4000CF52D140F093C6008091C00086FFFCCF19
:10FB50008091C00080648093C000432F3093C60022
:10FB60008091C00086FFFCCF8091C00080648093AC
:10FB7000C000922F2093C6008091C00086FFFCCF6A
:10FB80008091C00080648093C0008EE08093C600A6
:10FB90008091C00086FFFCCF8091C000806480937C
:10FBA000C00065E1C15DDE4FE880CF52D1406E25D7
:10FBB00069276427FE01319610C090819093C6009A
:10FBC0008091C00086FFFCCF31968091C000806498
:10FBD0008093C0006927215030402115310569F715
:10FBE0006093C6008091C00086FFFCCF8091C0006A
:10FBF00080648093C00085B1805885B9772081F4F6
:10FC0000C15DDE4F0881CF52D1400F5FC15DDE4F35
:10FC10000883CF52D14090E0A0E0B0E00D941AF4F8
:10FC200027982F9880E090E020ED37E0F901319798
:10FC3000F1F7019684369105C9F700008091C00064
:10FC40008D7F8093C00081E180935700E895EE2777
:10FC5000FF270994FFCF90E00D941AF497FB092E2B
:10FC600007260AD077FD04D02ED006D000201AF443
:10FC7000709561957F4F0895F6F7909581959F4F08
:10FC80000895A1E21A2EAA1BBB1BFD010DC0AA1FDD
:10FC9000BB1FEE1FFF1FA217B307E407F50720F0F5
:10FCA000A21BB30BE40BF50B661F771F881F991F70
:10FCB0001A9469F760957095809590959B01AC01B9
:10FCC000BD01CF010895AA1BBB1B51E107C0AA1FAC
:10FCD000BB1FA617B70710F0A61BB70B881F991FED
:10FCE0005A95A9F780959095BC01CD010895F99991
:10FCF000FECF92BD81BDF89A992780B50895262F31
:10FD0000F999FECF1FBA92BD81BD20BD0FB6F89400
:0EFD1000FA9AF99A0FBE01960895F894FFCF63
:00000001FF
